:10000000008000106D0900009D0900009F0900009C
:10001000A1090000A3090000A509000000000000DC
:10002000000000000000000000000000A709000020
:10003000A909000000000000AB090000AD090000A4
:10004000AF090000AF090000AF090000AF090000D0
:10005000AF090000AF090000AF090000AF090000C0
:10006000AF090000AF090000AF090000AF090000B0
:10007000AF090000AF090000AF090000AF090000A0
:10008000AF090000AF090000AF090000AF09000090
:10009000AF090000AF090000AF090000AF09000080
:1000A000AF090000AF090000AF090000AF09000070
:1000B000AF090000AF090000AF090000AF09000060
:1000C000AF090000AF090000AF09000010B5054CF2
:1000D000237833B9044B13B10448AFF300800123F4
:1000E000237010BD8801001000000000B48A0000D9
:1000F000084B10B51BB108480849AFF30080084809
:10010000036803B910BD074B002BFBD0BDE81040BE
:10011000184700BF00000000B48A00008C010010E6
:100120008801001000000000154B002B08BF134B86
:100130009D46A3F5803A00218B460F461348144A8A
:10014000121A02F0ACFA0F4B002B00D098470E4B5E
:10015000002B00D098470020002104000D000D481E
:10016000002802D00C48AFF3008002F0FDF9200017
:10017000290000F0C1FB01F027FF00BF00000800CC
:100180000080001000000000000000008801001046
:100190004404001000000000000000007047000050
:1001A00010B50446064B403003F1180240F8403CBD
:1001B0004C330260436001F03BFA204610BD00BFA3
:1001C00008830000A0F14000FFF7EABFA0F144005F
:1001D000FFF7E6BF10B5044601F04DFE204610BD06
:1001E00007B5064BA0228DE80C0005490822142310
:1001F000044801F02FFA03B05DF804FB80969800E4
:10020000F47E0000FC01001013B500240022A1B20E
:10021000009206481346013400F040F9A02CF5D1B5
:10022000024802B0BDE8104000F01AB914020010F4
:10023000374B73B51A780AB300241C70FF25A6B299
:10024000344831462A462B46009500F027F906F13E
:100250008C0100952F4889B22A462B46013400F0C4
:100260001DF9142CEAD12B4800F0FAF82A482B4942
:1002700001F0F0F94FF4FA6001F0FAFA00240025D9
:10028000A1B2009523487F222B46013400F006F9E5
:10029000A02CF4D11F4800F0E3F84FF4FA7001F0FD
:1002A000E7FAFFF7B1FF642001F0E2FA0024A9B2F7
:1002B0000094184822467F23013500F0EFF8A02D66
:1002C000F4D1144800F0CCF84FF4FA7001F0D0FAF1
:1002D000FFF79AFF642001F0CBFA7F2300220093FE
:1002E000A1B20C481346013400F0D8F8A02CF4D188
:1002F000084800F0B5F84FF4FA7001F0B9FAFFF7CA
:1003000083FF642002B0BDE8704001F0B1BA00BFC5
:10031000CC00001014020010FC010010667F0000E9
:1003200008B509484FF4E13101F016F9FFF758FF1D
:100330000648074900F06AF8044800F077F8FFF72C
:1003400063FFFFF775FFFCE7BC010010140200100B
:100350008096980010B50446FFF722FF204601F072
:100360008AFD204610BDA0F14000F3E7A0F1440053
:10037000F0E7000010B50E4C002320460D490E4A50
:1003800001F09AF820460D4C0D490E4A01F06EFD21
:1003900020460021182202F082F920460A4901F085
:1003A0009FF9BDE810400948A02100F019B800BF2E
:1003B000BC01001002C0092003C00920A4010010E4
:1003C000A1010000C800001032C009201402001072
:1003D000704710B5044601F04EFD204610BD0000E8
:1003E00070B58588044605EB450528460E4602F0A3
:1003F0002DF9206020B180212A4602F050F9A68014
:10040000014B2046A36070BD80841E008160704750
:1004100010B50C4634B104480021013C01F034F819
:10042000A4B2F7E710BD00BF2002001038B50446A3
:100430000A4D08212846002201F012F82846A1683A
:1004400001F01AF8A1882046BDE838401F31491153
:1004500001EB410189B2FFF7DBBF00BF20020010B2
:1004600070B505468388002603EB43039CB2B3B204
:10047000A34206D22B680848995D01F005F80136C1
:10048000F5E7A9882846BDE870403F31891101EBA6
:10049000410189B2FFF7BCBF2002001010B584886B
:1004A0008C4211D9046801EB410163F07F0363546E
:1004B000036862F07F020B445A70036819449DF888
:1004C000083063F07F038B7010BD000013B5094C3A
:1004D0004FF0FF33009320460749084A084B00F0CD
:1004E00083FF20460749084A02B0BDE8104001F0EA
:1004F000BDBC00BF2002001009C0092008C00920AF
:1005000007C00920D1030000C800001000B599B051
:1005100072B63B49684601F0E3F806A8394901F094
:10052000DFF80CA8384901F0DBF812A8374901F0D0
:10053000D7F832E0069B039A01990133116059D034
:100540000C9B0A9A0799013311604DD0129B109AA7
:100550000D990133116041D0159B139A96201A60B2
:1005600001F086F9009B013332D0069B049A019971
:100570000133116026D00C9B099A07990133116051
:100580001AD0129B0F9A0D99013311600ED0169B51
:10059000139A96201A6001F06BF9009B0133C9D1C0
:1005A0001B481C49242201F06BF8C3E7184819497D
:1005B000242201F065F8EAE715481649242201F0E3
:1005C0005FF8DEE712481349242201F059F8D2E718
:1005D0000F481049242201F053F8C6E70C480D4992
:1005E000242201F04DF8B7E709480A49242201F016
:1005F00047F8ABE706480749242201F041F89FE796
:1006000032C0092034C0092035C0092037C0092074
:10061000807F0000987F00000C4B30B49D689A6882
:100620002B46B2F1805F0CD2094AC43553F8044B13
:10063000AB4242F8044FF9D14FF080521346034CBD
:10064000A260103043F8201030BC704700ED00E08D
:10065000FCFFFF0F036870B51B69002101220446EF
:100660009847431C06460ED0236820461B6900218C
:10067000022298472368054631461B69204600221E
:100680009847284670BD70BD02480349034A00F0F0
:1006900071BD00BF3804001002C0092003C009204A
:1006A000084A094B10B4026003F58071002453F826
:1006B000042F824208BF1C608B42F8D15DF8044BC6
:1006C000704700BF2080000030020010F0B50E46D9
:1006D00085B03649054603F008FB20B9344B1B684A
:1006E00063B105B0F0BD2846324903F0FEFA78B98F
:1006F0002F4B1B6843B1012005B0F0BD0190FFF7FF
:10070000C3FF019805B0F0BDFFF7BEFF0120E8E789
:100710002846294903F0E9FA10B3284B002402E0E7
:100720000134402C21D053F8042F002AF8D12B7823
:100730003A2B33D0294602A800F0FAFD02A800F0B7
:100740004DFE90B102A800F02FFE88B102A800F083
:1007500035FE03464BB11A4AE01C42F82430C0E78C
:10076000134B1B68B3B10220BBE74FF0FF30B8E773
:1007700002A800F009FE05460028F6D0036802A88A
:100780009F6800F0FFFD26F4803201462846B847F6
:100790000346DFE7FFF778FF0220A2E72846094972
:1007A00002AA03F033FA029BD4E700BF00800000E6
:1007B0003403001010800000088000003002001098
:1007C000340200104480000002280ADD074AC31EDC
:1007D00052F82300002142F8231020B103685B681F
:1007E0001847002070474FF0FF3070473402001068
:1007F000022812DC0E4B70B51B680C4616460BB96E
:10080000FFF742FFA51936B114F8011B094800F0A3
:10081000FFFBAC42F8D1304670BD074B033853F8AC
:10082000200010B103681B6818474FF0FF30704775
:1008300034030010380400103402001002280DDCCC
:100840000C4B10B51B680C460BB9FFF71DFF0A488F
:1008500000F09CFB01232070184610BD074B0338A5
:1008600053F8200010B103689B6818474FF0FF331E
:10087000184670473403001038040010340200108A
:10088000022807DD064B033853F8200020B1036827
:10089000DB681847012070474FF0FF30704700BFFA
:1008A00034020010022807DD064B033853F82000FD
:1008B00020B103681B691847002070474FF0FF30D4
:1008C000704700BF34020010022808B504D84FF466
:1008D00000534B60002008BD01F070FB092303604A
:1008E0004FF0FF3008BD00BF08B5012001F06CFBE0
:1008F000704700BF704700BF08B5FFF7FBFFFFF769
:10090000F7FFBDE80840FFF70BBD00BF074A1368BB
:100910001918EFF30880814202D21846116070471F
:10092000034B0C221A604FF0FF307047D0000010CC
:10093000400400100A4C08B523680546986801F089
:100940005FFC2368D86801F05BFC00F06FFF20B902
:1009500005B9FEE7FFF7DAFDFBE700F069FFF7E70F
:1009600038010010002103F098B800BF0649074A7B
:10097000074B9A42BEBF51F8040B42F8040BF8E74C
:100980000448804704480047E88A0000C800001077
:1009900088010010B109000029010000FEE7FEE710
:1009A000FEE7FEE7FEE7FEE7FEE7FEE7FEE7FEE71F
:1009B0002B4A2023F0B4C2F8A031D2F8A031980617
:1009C00045D4274B002519460124AA205522022789
:1009D0000B26C3F80471C3F8A851C3F8AC51C3F88F
:1009E0000C41C3F88460C3F88C00C3F88C20C3F8B2
:1009F0008040C3F88C00C3F88C20D1F88830184AA6
:100A00005B01FAD511460324AA205523C2F8804081
:100A1000C2F88C00C2F88C30D1F88830104A13F03C
:100A2000407FF9D00F4900230520C2F80801C2F821
:100A3000C410C2F8C8311368F0BC23F4704323F02B
:100A40003A0343F4405343F03A0313607047D2F83B
:100A5000A0315906B5D4D2F8A0315906F7D5B0E780
:100A600000C00F40DE872804144B9968C1F342018F
:100A700001291BD0022917D1114AD16B013109D0AC
:100A8000916C106C086092F86E1019B9596821F0D9
:100A900001015960906B0A4B78B193F86E3023B125
:100AA000084B00211B68184770477047044B986B30
:100AB0000028FAD0034B1B6818477047000001401C
:100AC0003C0300103803001070B50368284CA342A3
:100AD00047D03FDD274CA34229D004F58044A342F0
:100AE00042D1254C082632BB01290BD04268234C49
:100AF000C2EBC20204EBC20292F8364030325279A5
:100B0000D44213D1B1FA81F45D68012202FA01F1F5
:100B100025EA01015960036864095B6802FA04F17F
:100B2000194203D1164BB240C3F8802070BD154C5A
:100B30000726002AD8D05A68012505FA01F10A4390
:100B400076B25A6021463046FFF766FD0C4BB54041
:100B50001D6070BDA4F58044A34205D10A4C052652
:100B6000C1E70A4C0626BEE700242646BBE700BFC5
:100B70000000014000800940910B00003C03001080
:100B800000E100E0FD0B0000610C0000690A0000BC
:100B9000174B9968C1F3420101291FD002291BD1CB
:100BA000144AD2F8AC1001310BD0D2F8B810D2F8F8
:100BB000B000086092F8DE1019B9596821F00101FF
:100BC0005960D2F8A8000B4B80B193F8DE3023B106
:100BD000094B00211B68184770477047054BD3F835
:100BE000A8000028F9D0044B1B681847704700BFC5
:100BF00000C009403C03001038030010154B9968F1
:100C0000C1F3420101291CD0022918D1124A516FA7
:100C100001310AD0D2F88010906F086092F8A610C7
:100C200019B9596821F001015960106F0A4B78B168
:100C300093F8A63023B1094B00211B681847704771
:100C40007047054B186F0028FAD0044B1B681847F3
:100C5000704700BF008009403C03001038030010BB
:100C6000144B9968C1F3420101291BD0022917D105
:100C7000114A5168013109D011699068086092F8F1
:100C8000361019B9596821F00101596010680A4BF2
:100C900078B193F8363023B1084B00211B68184710
:100CA00070477047044B18680028FAD0034B1B6844
:100CB0001847704700C000403C0300103803001084
:100CC0002DE9F04F844A03688DB093420B908B4618
:100CD00000F3E680814A934200F0ED8040F3CD803E
:100CE0007F4A934200F0A38002F5804293420CD1E8
:100CF0007C4AD2F8AC1121F44021C2F8AC11D2F8F0
:100D0000AC1141F48021C2F8AC1177494FEA0B12C3
:100D10000968B1FBF2F402FB14120891A4B2002A94
:100D200000F0A9805E46DA46089B4FF001085A00A1
:100D30009900019300230A92099105940692029169
:100D4000CDF81080CDF81CB003935346DDF81C900D
:100D50000027CA469946BB465FFA88F5CDF8008061
:100D6000B846069F002F76DB029BB3FBFAF4009B8C
:100D700064090134C4F34F0403EB0B0E002C64D15F
:100D8000BBF1000F00F0A5800224204600FB0EF00E
:100D9000019BC000B3FBF0F00130C9EB500001F043
:100DA000FBF8B04206DA48455FD00646CDF80C8025
:100DB000059404950BF1010B5FFA8BF8A845CA4422
:100DC000D0D3019B089ADDF80080134401930A9A5E
:100DD000069B08F1010813440693099A029BB8F197
:100DE000100F13440293079BCA464B440793ACD1A0
:100DF000039B049A059C43EA02150B9BEDB21B680A
:100E00001A7BC4F3072142F080021A730B9AE4B2F2
:100E10001368197113681C70136883F828501268DE
:100E2000137B03F07F0313730DB0BDE8F08F2D4AE1
:100E3000D2F8AC1121F44031C2F8AC11D2F8AC11A7
:100E400041F48031C2F8AC115FE7BBF1000F9CD0D8
:100E5000012C9AD898E7B7FBFAF4009B24090134D7
:100E6000C4F34F0403EB0B0E88E70B9B48EA051510
:100E7000EDB21B68C4E71025C2E7A2F58042934299
:100E80007FF443AF174AD2F8A81121F0C001C2F88D
:100E9000A811D2F8A81141F04001C2F8A81134E716
:100EA0009B221248124900F0EBFB0B9B0B4A1B687C
:100EB00093427FF413AF0B4AD2F8A81121F440718A
:100EC000C2F8A811D2F8A81141F48071C2F8A81193
:100ED0001BE70124204659E700C0094000000140FB
:100EE0000080094000C00F40D4000010F4800000D2
:100EF00010810000F8B55F1E012F05460E4614460E
:100F000004D915481549FB2200F0BAFB053E032E13
:100F10001CD8042C14D8013CE4B2032C0DD8104B7F
:100F2000082153F824000001C2B246EA87060E43A6
:100F300032432B68D2B21A73F8BD00221146F4E78F
:100F400008480649FE2200F09BFBE4E706480349F7
:100F5000FC2200F095FBDCE77881000010810000A6
:100F600078800000C4810000A0810000436810B4B4
:100F70000448054CC3EBC30344F8332001605DF81B
:100F8000044B7047380300103C0300100268137DC7
:100F9000DB07FCD543680949C3EBC30301EBC3037B
:100FA000596810780131C0B206D059699B680B604E
:100FB000536843F001035360704700BF3C030010C7
:100FC0004368124AC3EBC30302EBC303D96901317F
:100FD0000BD0196B1B6A0A681A4204D10368187D8A
:100FE000C0F380107047002070470268127D92069F
:100FF00006D493F834000F288CBF002001207047DE
:10100000002283F834200120704700BF3C03001009
:1010100038B504460D462046FFF7D2FF0028FAD027
:101020002368EDB21D706368054AC3EBC30302EB8E
:10103000C30393F83420013283F8342038BD00BF55
:101040003C0300102DE9F04F04464648256883B064
:1010500085420F469146019343D0D4F804A0002561
:101060005346414E4FEACA08C3EBC303CAEB080E0E
:10107000002006EBCE0E4FF0FF3B06EBC30301460C
:10108000024683F83500CEF81CB02046CEF804B0F6
:10109000FFF71AFD17B903B0BDE8F08F3349484692
:1010A00000F09CFB32498346019800F097FBBB1E81
:1010B000012B37D9012FEED1B9F1FF3FEBD0294BEE
:1010C000226807219B45117213D195B148462B7CAC
:1010D000264943F040032B7403B0BDE8F04F00F005
:1010E0004BBB2B7CD4F804A003F03F032B74636844
:1010F000B7E7CAEB080806EBC800494601250430EB
:10110000002200F00FFB20462A4663680021C3EB53
:10111000C30306EBC30686F8355003B0BDE8F04FB5
:10112000FFF7D2BC019B01330AD00E4B98420DD081
:10113000CAEB080006EBC00001991C3000F0BEFAB3
:10114000032FA8D1B9F1FF3FB9D1A4E7002DEFD00B
:101150002B7C019843F080032B74054900F00CFBB5
:10116000EEE700BF000001403C0300105480000087
:10117000C48200002DE9F0470F4605460846614944
:10118000164600F039FB60490446304600F034FB57
:101190000146204600F010FB411C044600F0AB80E5
:1011A0005A4B2860984200F0838053D9584B98429C
:1011B00076D003F58043984206D1564AD2F8C4301F
:1011C00043F00073C2F8C4304FF0010984F808906E
:1011D0002B684FF00008C3F8048028464FF41651DE
:1011E000FFF76EFD42464B4628460821FFF782FE78
:1011F0003846444900F0C0FA3046434900F0BCFA92
:101200007A1C03D03846414600F0B6FB731C03D06D
:101210003046002100F0B0FB3C4B9C4250D025D919
:101220003B4B9C4264D003F580439C424BD103234B
:101230006B60394CC3EBC3034FF0FF3604EBC304C0
:101240002846324633466660E6610021BDE8F04735
:10125000FFF7F8BEA3F580439842B5D12D4AD2F8E6
:10126000C43043F00803C2F8C430ADE7A3F58043AF
:101270009C4228D1284E4FF0FF340021696022465D
:10128000234628467460F461FFF7DCFE234B0124FB
:1012900029461C6022480822BDE8F04701F0F4B955
:1012A0001C4AD2F8C43043F08073C2F8C4308BE7D4
:1012B000184AD2F8C43043F01003C2F8C43083E7B0
:1012C00001236B60B5E76E68134BC6EBC6064FF0A3
:1012D000FF3703EBC6063A463B46284600217760B7
:1012E000F761FFF7AFFE0F4B9C42CFD0BDE8F08710
:1012F00002236B609DE70C480C495C2200F0C0F9AA
:101300002C6061E7588200008880000000000140E6
:101310000080094000C00F403C030010340300105F
:101320003804001000C00040488200001081000016
:1013300038B50023036043600A7804462F2A01D0A1
:10134000204638BD4A78002AFAD0481C20604D78E3
:101350002F2D13D085B1034600E06AB15D1A013329
:1013600023601A782F2AF8D129460133236000F030
:101370000BFD6060204638BD2946F8E71946034654
:10138000F3E700BF00687047436843B110B50446F7
:10139000184600F017FD012803D1606810BD002039
:1013A0007047002010BD00BF406830B108B500F0A4
:1013B00009FDB0FA80F0400908BD704743684BB1A1
:1013C00010B50446184600F0FDFC28B9606818B155
:1013D000043810BD00207047002010BD4068003068
:1013E00018BF0120704700BFF0B5044683B008273E
:1013F000DFF83CC0A7600D48089F251D0026C4F8F3
:1014000000C0206166602846E660009700F0F0FAB0
:1014100028463346A168E26800F060FB284621694F
:1014200000F094FB204603B0F0BD00BF40420F0027
:10143000F082000070B5094D2B6883420CD0044641
:10144000061D3046A168E268002300F047FB3046E5
:10145000216900F07BFB2C6070BD00BF1C040010F4
:1014600010B4044C002323608160C2605DF8044B1B
:10147000FFF7E0BF1C040010024B002201611A605C
:10148000FFF7D8BF1C04001038B50C460546FFF71F
:10149000D1FF281D2146BDE8384000F0C1BB00BF88
:1014A00000F062B8A0F14000FFF7FABF00F060B8AA
:1014B000A0F14000FFF7FABF38B504461D4600F022
:1014C0002DF8294604F1400000F090F8054B204625
:1014D00003F1080103F120025433216022646364A4
:1014E00038BD00BF008300004A1C02EB420200EB43
:1014F000C202936853B101EB4101C9004218D2689E
:101500001AB10144103110461847704701EB4103EE
:1015100000EBC301CB68002BF7D0184770B5044629
:101520000B4E0023251D4FF41650E06363602846E0
:10153000A360E36023626362A3632660FFF71AFE81
:10154000284622460349FFF711FD204670BD00BF23
:1015500068830000E914000038B504460D460430E5
:10156000FFF7AEFBE56338BD0430FFF70FBD00BFEA
:1015700010B50C460430FFF74BFD204610BD00BFF0
:1015800000207047F8B58E18B1420F460ED00546C0
:101590000C4601E0A64207D02B6828465B6A14F887
:1015A000011B98470130F5D1E01BF8BD0C46FBE765
:1015B000F8B58E18B1420F460ED005460C4603E032
:1015C00004F8010BA64205D02B6828469B6A984771
:1015D000431CF5D1E01BF8BD0C46FBE7002070472B
:1015E00000207047002070470020704710B5044667
:1015F00084B000F0E9FB0B4B002203F108013C33FF
:1016000084E80A00626101A82246074902F0DAFA7A
:10161000064901A800F0F2FE6061FFF7A3F9204639
:1016200004B010BD7083000044800000B48300004B
:1016300010B50446064B406903F108023C3384E8C8
:101640000C0000F027FD204600F0D2FB204610BD24
:10165000708300000EB430B5044682B005AB53F879
:10166000045B4069019300F0CBFD29466069019A53
:1016700001F0E8F902B0BDE8304003B0704700BFA8
:1016800010B40C4613460146224602485DF8044B4E
:1016900000F002B8B88300000FB400B5064A83B06A
:1016A00004AB53F8041B10681A46C068019301F09C
:1016B000C9F9012000F088FC3801001038B50D464A
:1016C000044600F0F3F8013509D02046002100F06F
:1016D00009F92046BDE83840032100F0FFB838BDC5
:1016E00038B50D46044600F0E1F801350FD0236807
:1016F00001330DD02369626820461A60012100F091
:10170000F1F82046BDE83840022100F0E7B838BDC6
:10171000024803492422FFF7B3FFEBE7807F000074
:10172000987F000070B50D461646044600F0BEF8DE
:10173000013514D02368013312D066B92369626879
:101740001A602046012100F0CDF82046BDE8704027
:10175000022100F0C3B8E36862681A60F1E770BD67
:10176000034804492422FFF78BFF002EE6D0F2E75E
:10177000807F0000987F0000431C10B5044618D0FD
:101780000B68581C04D10FE051F80C3F5A1C0BD0C9
:101790009C42F9D12046896800F0C6F82046BDE891
:1017A0001040022100F0E8B80248BDE81040FFF701
:1017B00073BF10BDEC83000088420AD0421C09D0E0
:1017C000013106D008B50448FFF766FF4FF0FF303F
:1017D00008BD704708467047008400000B685A1C1B
:1017E00004D107E051F80C3F5A1C03D08342F9D1D1
:1017F0004868704718467047421C0ED008B50B6801
:101800005A1C04D10AE051F80C3F5A1C06D09842E9
:10181000F9D14868411C01D008BD70470248FFF764
:101820003BFF4FF0FF30F7E71484000000F00CB8E6
:1018300030B585B018246D4620462946ABBE044617
:10184000204605B030BD00BF024B186800F0010013
:10185000704700BFF0ED00E038B5054600F024FA0F
:10186000044600F021FA001BA842FAD338BD00BF9D
:101870004FF47A7303FB00F0FFF7EEBF431C10B583
:10188000044608D02046002100F04EF804F01F0462
:101890000120A04010BD034803491522FFF7F0FEC8
:1018A000F0E700BF54840000688400004A1C016017
:1018B00013D038B50C4605460846FFF7DFFF24F085
:1018C0001F0101F1180401F11C0201F11403686009
:1018D000A960EC602A616B6138BD7047006800F058
:1018E0004BB800BF38B50368044601330D4610D02D
:1018F00045B1012D05D1A268636811680B431360DF
:1019000038BD38BDA2686168136823EA010313601B
:1019100038BD034803492C22FFF7B2FEE8E700BFB9
:10192000807F00006884000038B5431C04460D46E3
:1019300018D004F16040A0F51C2003099B0003F1BE
:10194000804303F5303300F00F0019684000032294
:10195000824021EA02021A601A68854045EA0201C3
:10196000196038BD024803491522FFF789FEE0E7F8
:1019700054840000D084000038B5431C05460C4652
:101980002BD005F16040A0F51C2043099B0003F11A
:10199000804303F53033996E00F01F02C4F38005D5
:1019A00005FA02F221EA02019966996E0A439A66E3
:1019B00095B903099B0003F1804303F5303300F030
:1019C0000F00196C40000322824021EA02021A64CF
:1019D0001A6C844014431C6438BD03480349202218
:1019E000FFF74EFECDE700BF54840000D084000016
:1019F0002DE9F04F804683B008460F462F49164622
:101A00001D460C9CFFF7F8FE2D4901903046FFF76C
:101A1000F3FE2C4981462846FFF7EEFE2A4983460D
:101A20002046FFF7E9FE019B494682461846FFF72C
:101A3000C3FE514681465846FFF7BEFE0146484662
:101A4000FFF7BAFE421CC8F800002ED01F4B984288
:101A500023D003F5B023984214D038461749FFF736
:101A60008BFE30461649FFF787FE28461549FFF7DB
:101A700083FE631C0ED02046134903B0BDE8F04F2F
:101A8000FFF77ABE124AD2F8C43043F40013C2F80A
:101A9000C430E2E703B0BDE8F08F0D4AD2F8C4309D
:101AA00043F48063C2F8C430D7E70A480A494422A5
:101AB000FFF7E6FDD8F80000C8E700BF8C860000FD
:101AC0003485000070850000C886000000000340D7
:101AD00000C00F40AC850000C0850000F8B5064688
:101AE0000068A1F1040E0C464168BEF10C0F21F014
:101AF000020115461F46416001D8032A05D9114845
:101B000011495922FFF7BCFD30680168013C05F01E
:101B1000010344EAC313090CC5F3400443EA8414E7
:101B200009040C4304604368002F14BF0422002200
:101B300023F00D0313434360436843F00203436003
:101B4000F8BD00BF28860000C0850000F8B5036816
:101B500007465A682D4822F0020283425A6041D05B
:101B60002B4A934230D02B4B08461E6806F012F8E1
:101B70000224054603E00234B4F5807F40D0B6FB72
:101B8000F4F006F007F8294606F00CF94FF07C5106
:101B900005F04CFF05F0BEFB00F072F905F0A8FE61
:101BA000FF28E8DC3B6801381C611A6822F47F02D8
:101BB00022F47F421A601A6842EA002018605A68CC
:101BC00042F002025A60F8BD134BD3F8AC2122F464
:101BD0004062C3F8AC21D3F8AC2142F48062C3F870
:101BE000AC21C0E70C4BD3F8A82122F44012C3F873
:101BF000A821D3F8A82142F48012C3F8A821B2E7A3
:101C00000648BDE8F840FFF747BD00BF00000340AD
:101C100000800840D400001000C00F40648600001F
:101C20000368DA689007FCD59960DA685207FCD53A
:101C30009868704738B51249124B01241C60D1F8DE
:101C4000C430114A43F4000310480025C1F8C430E1
:101C50001567036801F1437101F5F45103319B08E5
:101C6000A1FB03139B0C013B022151600420D360B4
:101C700007495460FEF7D0FC064B10221A6038BDAD
:101C800000C00F402004001000400940D4000010A4
:101C9000151E000000E100E0024B1B6803B1704715
:101CA000FFF7C8BF2004001008B5044B1B680BB930
:101CB000FFF7C0FF024B986808BD00BF200400106A
:101CC00000400940034B98615A6942F001025A6191
:101CD000704700BF00400940024A536923F00103E6
:101CE0005361704700400940014B01221A60704760
:101CF00000400940094A8368026053B1084B1A68E2
:101D0000824201D106E01A4653688342FBD1436800
:101D10005360704742681A60704700BF1087000028
:101D2000240400100C4A836810B50446026053B1C5
:101D30000A4B1A68904201D10AE01A4653689C4245
:101D4000FBD163685360204600F095F8204610BD33
:101D500042681A60F7E700BF1087000024040010F3
:101D600010B4074C0023027381600460436019B112
:101D7000044B1A68186042605DF8044B704700BF5E
:101D800010870000240400100D4B70B51C68064637
:101D90000D4614B911E064687CB1A0680028FAD03F
:101DA00031462A4601F0B3FF0028F4D1A06801F0C3
:101DB000A6FFA842EFD1204670BD002070BD00BF35
:101DC00024040010007B704710B50446064B002227
:101DD00040F8043BFFF7C4FF044B204603F1080220
:101DE000343384E80C0010BD208000001887000008
:101DF00010B50446064B03F108023433226040F864
:101E0000043FFFF777FF2046FEF74AFC204610BD4F
:101E100018870000014800F003B800BF6887000081
:101E2000036870B5DB68054698476B685B6883B1EB
:101E30002A681C6853689847201A00286A680DDCD5
:101E400050681168836853600029F0D04068884763
:101E5000EBE72B68BDE870409B6818472B68526819
:101E60001B691068BDE87040184700BF034608466C
:101E7000194600F095B800F0F1BB0000000000002A
:101E80002DE9F047C1F30A58A8F2FF36132E0B468E
:101E900004460D460246894607461DDC002E40DBFF
:101EA000DFF8F08048FA06F808EA010E5EEA02025E
:101EB00017D035A3D3E9002305F0CEF80022002384
:101EC00005F00CFD20B1002D40DB29EA08050027B4
:101ED00038462946BDE8F087332E06DDB6F5806F1B
:101EE0002FD020461946BDE8F087A8F213424FF0E4
:101EF000FF3A2AFA02FA1AEA000FF2D022A3D3E933
:101F0000002305F0A9F80022002305F0E7FC0028D3
:101F1000DED0002D1FDB4D4627EA0A07384629464A
:101F2000D8E719A3D3E9002305F096F8002200238F
:101F300005F0D4FC0028CBD0002D1ADB00273D464D
:101F4000C6E702460B4605F087F8CCE74FF480134E
:101F500033419944B9E7142E08D0C8F5866808F1D2
:101F60000308012303FA08F31F19D4D309F1010967
:101F7000D1E725F00042064B224318BF1D4600273B
:101F8000A6E700BFAFF300809C7500883CE4377E75
:101F90000000F0BFFFFF0F000028B8BF40427047AD
:101FA00038B5054604480C46134620B102202946A0
:101FB0002246AFF3008038BD00000000014B1868D6
:101FC000704700BF3801001008B5074B044613B135
:101FD0000021AFF30080054B1868836A03B198476E
:101FE0002046FEF7A7FC00BF00000000D4870000D9
:101FF00070B505460C4609B9002070BD18B183695B
:102000000BB900F04FF9204B9C4201D16C6808E0FD
:102010001E4B9C4201D1AC6803E01D4B9C4208BFA3
:10202000EC68B4F90C30002BE6D02846214600F0CD
:1020300039F8236B064633B12846216A98470028B1
:10204000B8BF4FF0FF36A3891B0603D52846216988
:1020500000F02EFB616B41B104F14403994202D0C0
:10206000284600F025FB00236363A16C21B12846BC
:1020700000F01EFB0023A36400F07EF90023A3817F
:1020800000F07BF9304670BD70870000908700003B
:10209000B0870000024B01461868FFF7A9BF00BFD8
:1020A000380100108A892DE9F041054610070C46D9
:1020B00057D44B68002B02DC0B6C002B18DDE66A52
:1020C000B6B102F48052002392B22F682B600AB19D
:1020D000626D10E0216A28460123B047411C024688
:1020E00009D12B683BB11D2B01D0162B46D12F6097
:1020F0000020BDE8F081A3895B0705D56368D21A8B
:10210000636B0BB1236CD21AE66A00232846216A5E
:10211000B047461CA38905D12A681AB11D2A01D0EF
:10212000162A19D1002262602269D904226004D5DE
:10213000421C01D12B6803B96065616B2F600029D7
:10214000D6D004F14403994202D0284600F0B0FAF8
:1021500000206063BDE8F08143F04003A381BDE847
:10216000F0810F69002FC3D093070E680CBF4B6935
:102170000023C7EB06080F608B6012E0A3894FF0C5
:10218000FF3043F04003A381BDE8F0812846216A77
:102190003A464346A66AB0470028EFDD0744C0EB45
:1021A0000808B8F1000FF1DCA2E7000038B50B69B0
:1021B00005460C46DBB118B183690BB900F072F823
:1021C0000C4B9C4201D16C6808E00B4B9C4201D146
:1021D000AC6803E0094B9C4208BFEC68B4F90C30D2
:1021E0002BB128462146BDE83840FFF75BBF0020F1
:1021F00038BD00BF7087000090870000B0870000E6
:10220000014620B9044B0549186800F08FB9044B0A
:102210001868FFF7CBBF00BFD4870000AD210000D6
:1022200038010010014900F081B900BFAD21000064
:1022300010B50446002303604360836081814366D8
:10224000C28103614361836119465C30082200F05A
:1022500026FA054B24626362044BA362044BE362DB
:10226000044B236310BD00BF613C0000873C0000AD
:10227000BF3C0000E33C000070B568234D1E5D4389
:102280000E4605F1740100F057FA044640B10021F2
:1022900080E842000C30A06005F1680200F0FFF910
:1022A000204670BD836910B5044633BB8364C364A4
:1022B0000365124B124A1B688262984204BF0123D5
:1022C000836100F01FF86060204600F01BF8A060FA
:1022D000204600F017F80421E06000226068FFF754
:1022E000A7FFA06809210122FFF7A2FFE0681221E1
:1022F0000222FFF79DFF0123A36110BDD4870000D8
:1023000025220000F8B51B4B07461E68B36913B9B8
:102310003046FFF7C7FF4836B4687368013B04D402
:10232000B4F90C5075B16834F8E733682BB9384606
:102330000421FFF7A1FF306008B13668ECE70C23F9
:102340003B60F8BD4FF6FF73E3810123A38165660F
:102350002560A560656025616561A56104F15C008B
:102360002946082200F09BF96563A563A564E5642E
:102370002046F8BDD487000070477047F7B50F4678
:10238000114601AA054603F091FB064608B9002054
:1023900029E02846FFF7B6FF04460028F7D0284674
:1023A0003946019A4FF4DB7301F0FCFA002806DA93
:1023B0000025FFF7E1FFA581FFF7DFFFE7E70B4B04
:1023C000E08163620A4BA681A3620A4B2462E36246
:1023D000094B2363F30505D5284621460022022335
:1023E00000F016F8204603B0F0BD00BF613C0000CD
:1023F000873C0000BF3C0000E33C000003460A4667
:10240000024908681946FFF7B9BF00BF380100103C
:1024100000F000B82DE9F8430C4690461E460546EC
:1024200018B183690BB9FFF73DFF3D4B9C4201D1C9
:102430006C6808E03B4B9C4201D1AC6803E03A4B2E
:102440009C4208BFEC68A38903F48473B3F5847FCE
:1024500003D128462146FFF7A9FEE76A0FB91D23DD
:102460002BE0012E04D0022E2BD056B3162324E0ED
:1024700028462146FFF79AFEA28902F4805292B2C2
:102480000AB1606D05E0216A28463346B847411C11
:1024900014D0A3895A0706D56368C01A636B4BB181
:1024A000236CC01A06E01B0704D5236813B1226908
:1024B0009B1A18448044002603E02B604FF0FF393C
:1024C0002BE023691BB92846214600F073F8284603
:1024D0002146FFF76BFE81460028EFD12846216A8E
:1024E00042463346B8470130E8D0616B41B104F150
:1024F0004403994202D0284600F0DAF800236363CF
:10250000236900212360A389616023F40263A3810E
:1025100004F15C00082200F0C2F84846BDE8F883E8
:102520007087000090870000B08700002DE9F84315
:102530008046894600F14804002694B1A568676882
:10254000013F0CD4AB89012B07D9B5F90E3001330B
:1025500003D040462946C84706436835F0E724685B
:10256000EBE73046BDE8F8830E4B70B51E460E4CC7
:102570000025E41AA410A54204D056F82530984747
:102580000135F8E705F0AAFC084B094C1E46E41A91
:10259000A4100025A54204D056F8253098470135EF
:1025A000F8E770BD78010010780100107801001084
:1025B00084010010F0B58B8991B09D0706460C464A
:1025C00025D4B1F90E10002908DAA389002513F0EB
:1025D000800F14BF40274FF480670DE001AA03F07D
:1025E0009DFA0028F1DB029D4FF4806705F47045E9
:1025F000A5F500514D424D413046394600F09CF85A
:1026000060B9A3899A051DD443F00203A38104F1A4
:102610004703236023610123636113E00A4BB36224
:10262000A389206043F08003A381206167614DB1DD
:102630003046B4F90E1003F08FFD18B1A38943F0B2
:102640000103A38111B0F0BD25220000024B014619
:10265000186800F071B800BF38010010024B014645
:10266000186800F025B800BF3801001010B5C9B2D5
:1026700002449042034605D01C7801308C42F8D1C8
:10268000184610BD002010BD10B5431E0A449142EB
:1026900004D011F8014B03F8014FF8E710BD0346D1
:1026A0000244934202D003F8011BFAE7704700008E
:1026B00030B500293CD051F8042C0B1F1D49002ACD
:1026C000B8BF9B180A680C4612B95A600B6030BD3F
:1026D00093420DD219685818904201BF5A585218A7
:1026E0001A60426823605A6030BD994203D80A4696
:1026F00051680029F9D1146815199D420AD11B6847
:102700002344D0188842136012D108680344136030
:102710004B680CE002D90C23036030BD1C6818190B
:10272000884201BF08684968001918605960536001
:1027300030BD00BF3404001070B5CC1C24F003047D
:1027400008340C2C38BF0C24002C064603DA0C236A
:102750003360002070BD8C42F9D3204A13681046C4
:102760001946A1B10A68121B0ED40B2A03D90A60BC
:102770008B188C501FE08B420BBF5A684A6802606E
:102780005A6018BF0B4616E00B464968E9E7144D3E
:102790002B681BB9304601F03FF9286030462146CE
:1027A00001F03AF9421C0346D1D0C51C25F00305BF
:1027B00085420AD11C6003F10B001A1D20F00700AE
:1027C000821A0AD05142995070BD3046E91A01F080
:1027D00023F90130BBD02B46ECE770BD3404001068
:1027E00030040010936810B5013B002B936009DAA8
:1027F0009469A34202DBCBB20A2B03D1BDE810409F
:1028000002F02CBA1368581C10601970C8B210BDC1
:10281000F8B506460F461446D518AC4208D03046E7
:1028200014F8011B3A46FFF7DDFF431CF5D100E029
:102830000020F8BD2DE9F0439DB00D46904603936E
:10284000064618B183690BB9FFF72CFD754B9D4205
:1028500001D1756808E0744B9D4201D1B56803E071
:10286000724B9D4208BFF568AB891C070AD52B69DE
:1028700043B10023099320238DF8293030238DF8AC
:102880002A3041E03046294602F04EFA0028F0D0C6
:102890004FF0FF30C2E0039A0134111D126803911A
:1028A000002ABBBF524243F0020307920792B8BF0F
:1028B000049323782E2B7BD0DFF88081217840464B
:1028C0000322FFF7D3FE38B1049AC8EB000040237F
:1028D000834013430493013421785548062204F1C0
:1028E00001088DF82810FFF7C1FE002800F0858050
:1028F000504B002B78D1039B073323F00703083399
:102900000393099B3B44099343461C4613F8012B50
:102910001AB9B4EB08090ED002E0252AF5D1F8E780
:102920003046294642464B46FFF772FF013070D0D1
:10293000099B4B4409932378002B6AD000234FF066
:10294000FF3204930793059206938DF853301A9340
:1029500004F101084446DFF8E89021784846052252
:10296000FFF784FE08F10108049B30B1C9EB0000B9
:102970000122824013430493ECE7D80644BF20228F
:102980008DF85320190744BF2B228DF8532022784D
:102990002A2A80D0234607991C4622780133303AF0
:1029A000092A03D80A2000FB0121F5E7079180E7F7
:1029B00063782A2B0AD1039B02341A1D1B680392E9
:1029C000002BB8BF4FF0FF33059375E7611C002261
:1029D0000C4623780131303B092B03D80A2000FB39
:1029E0000232F5E7059267E703AB0093304604A98E
:1029F0002A46114B00F0C4F807E003AB00933046C1
:102A000004A92A460C4B00F077FB421C07467FF4D2
:102A100078AFAB895B063FF53BAF09981DB0BDE8C9
:102A2000F08300BF7087000090870000B08700002F
:102A3000E2870000812B000011280000DE870000E3
:102A4000D887000030B505460C461346034A294690
:102A500010682246BDE83040FFF7ECBE3801001098
:102A60002DE9F0471E4688B0149F002BB8BF06F131
:102A70000043129927F02007B6BF1E4600232D23DE
:102A8000462F1446109DDDF84CA00B7003D0452F47
:102A900003D1013501E0032300E002238DE828047F
:102AA00006AB039307AB04932246334602F044FA85
:102AB000472F804602D1119BDB0726D5462F08EB16
:102AC000050911D198F80030302B0AD12046314643
:102AD0000022002304F0DAFE18B9C5F10105CAF896
:102AE0000050DAF800309944204631460022002395
:102AF00004F0CCFE08B1CDF81C90079B4B4504D2E6
:102B00005A1C079230221A70F7E74046079B159A25
:102B1000C8EB0303136008B0BDE8F087034673B544
:102B20000029B8BF494203F8022BB4BF2D222B2243
:102B3000092942701ADD0DF1070426460A2291FB8D
:102B4000F2F502FB1511092D01F1300104F8011D08
:102B50002946F3DC3031651E04F8011CB5421A46E3
:102B60000AD215F8012B03F8012BF7E71A46302497
:102B7000214402F8024B5970101A02B070BD0000D7
:102B80002DE9F04F91B08B4615461E461A9F04461C
:102B900003F0F2FAD0F800A0504601F0B0F800239C
:102BA0000E933B680990073323F0070303F10802F3
:102BB0009BF818803A60D3E90023CBE91223DBE9C4
:102BC000120100F001FF0128DBE9120119D10022F6
:102BD000002304F065FE10B12D238BF84330A04B89
:102BE000A04FB8F1470F88BF1F460323CBF8103022
:102BF000DBF8003023F00403CBF800304FF000097D
:102C0000A1E000F0E1FEDBF8003048B9964A974FAA
:102C1000B8F1470F88BF17460322CBF81020E9E729
:102C2000DBF80420DBE91201571CCDE90A0101D1D0
:102C3000062209E0B8F1670F02D0B8F1470F05D1BD
:102C4000002A40F0C7810122CBF80420DBF80420E1
:102C500043F480638DE80C00CBF800300DF13303B2
:102C600002930DAB03930EAB059300230693CDF8AF
:102C70001080DDE90A232046FFF7F2FE08F0DF03AB
:102C8000472B07460AD10D9BD81C03DBDBF8042039
:102C9000934237DDA8F102085FFA88F8B8F1650FB2
:102CA0000D9915D8013942460BF150000D91FFF7EF
:102CB00035FF0E9A81468318012ACBF8103003DCC9
:102CC000DBF80020D10738D50133CBF8103034E0E1
:102CD000B8F1660F18D10029DBF8043009DDCBF814
:102CE00010101BB9DBF80020D20721D501330B44AB
:102CF0001CE01BB9DBF80020D00701D5023315E03A
:102D0000012313E04FF067080D9B0E9A934207DBF7
:102D1000DBF80020CBF81030D10709D5013305E0EE
:102D2000002BD4BFC3F1020301231344CBF81030AE
:102D30000D9B4FF00009CBF858309DF8333013B19C
:102D40002D238BF843300096204659460FAA2B4678
:102D500000F05CF9013002D14FF0FF3052E1DBF8B6
:102D600000305A0505D4204629463A46DBF8103093
:102D700008E1B8F1650F40F2D080DBE912010022D2
:102D8000002304F083FD50B320462946384A01232E
:102D9000B0470130E0D00E9B0D9A9A4209DBDBF878
:102DA0000030D80705D4DBF800309F0700F1108110
:102DB00007E1204629465246099BB0470130CBD057
:102DC00000270E9B013B9F42EDDA204629460BF17E
:102DD0001A020123B0470130BED00137F1E70D9B45
:102DE000002B29DC20462946214A0123B047013027
:102DF000B2D00D9B2BB90E9B1BB9DBF80030D90765
:102E0000D1D5204629465246099BB0470130A3D070
:102E10004FF000080D9B20465B429845294608DA92
:102E20000BF11A020123B047013095D008F10108D7
:102E3000F0E73A460E9BA5E0DBF858200E9B9A423D
:102E4000A8BF1A46002A914602DC4FF000081CE099
:102E5000204629463A464B46B0470130F5D17BE73C
:102E6000ED870000E9870000F5870000F18700008A
:102E700042880000204629460BF11A020123B04780
:102E800001303FF469AF08F10108DBF85830B9F1BF
:102E9000000FB4BF1A46C9EB03029045EADB07EB0B
:102EA00003080D9A0E9B9A4210DBDBF80030DA071C
:102EB0000CD40E9A1744C8EB07030D9FD21B934204
:102EC000A8BF1346002B1F4608DC0EE0204629460B
:102ED0005246099BB0470130EBD13DE720462946D9
:102EE0004246B04701303FF437AF4FF000080AE0E8
:102EF000204629460BF11A020123B04701303FF466
:102F00002BAF08F101080D9A0E9B002FA3EB0203D3
:102F1000A8BFDB1B9845EBDB45E70E9A012A01DCD5
:102F2000DB0736D5204629463A460123B047013013
:102F30003FF412AF204629465246099BB047013064
:102F40003FF40AAFDBE912010022002304F09EFCEB
:102F5000E8B90E9B204629467A1C013B1DE020461D
:102F600029460BF11A020123B04701303FF4F4AEB9
:102F700001370E9B013B9F42F1DB204629464B4621
:102F80000BF15002B04701307FF40DAFE4E60027AB
:102F9000EFE7204629463A460123B0470130ECD1FD
:102FA000DAE6204629460BF119020123B047013029
:102FB0003FF4D2AE0137DBF80C300F9A9B1A9F42D8
:102FC000EFDBDBF80C000F9B9842B8BF184619E006
:102FD0000027F0E743F480638DE80C00CBF8003065
:102FE0000DF1330302930DAB03930EAB0593002356
:102FF0000693CDF810802046DDE90A23FFF730FD67
:10300000074640E611B0BDE8F08F00BF2DE9F84358
:1030100091461F468A680B6906469342B8BF13461D
:10302000C9F8003091F843200C46DDF8208012B139
:103030000133C9F800302368990642BFD9F800303F
:103040000233C9F80030256815F006051CD094F845
:1030500043302268003318BF012392061FD5E118C0
:10306000302081F843005A1C94F845102244023362
:1030700082F8431013E03046394604F11902012367
:10308000C047013007D00135E368D9F800209B1A0A
:103090009D42F0DBDBE74FF0FF30BDE8F8833046C0
:1030A000394604F14302C0470130F4D02268D9F810
:1030B0000050E36802F00602042A08BF5D1B226983
:1030C000A3680CBF25EAE57500259342C4BF9B1A8F
:1030D000ED184FF00009A9450ADA3046394604F1E7
:1030E0001A020123C0470130D5D009F10109F2E7E6
:1030F0000020BDE8F88300002DE9FF410C4617468B
:10310000227E98466E2A06460A9B01F1430100F092
:10311000B08012D8632A23D00AD8002A00F0BD80DC
:10312000582A40F0CC8084F84520DFF804E257E0CC
:10313000642A1ED0692A1CD0C1E0732A00F0B18035
:1031400009D86F2A2ED0702A40F0B980226842F048
:10315000200222603FE0752A24D0782A3BD0AEE0DE
:103160001A6804F14205111D1960136884F8423091
:10317000A9E020681A6810F0800F02D0101D1860B6
:1031800008E010F0400F02F10400186002D0B2F91C
:10319000003000E01368002B3EDA2D225B4284F8F9
:1031A000432039E020681A6810F0800F02D0101D0B
:1031B000186007E010F0400F02F10400186001D021
:1031C000138800E01368227EDFF864E16F2A0CBFE9
:1031D00008220A221CE07822DFF858E184F8452012
:1031E0002268186812F0800F00F104051D6003D1F9
:1031F000550601D5038800E00368D00744BF42F0BC
:10320000200222601BB9226822F0200222601022D4
:10321000002084F8430002E0DFF814E10A22656828
:10322000002DA8BF2068A560A4BF20F00400206086
:1032300003B965B10D46B3FBF2F002FB10331EF883
:10324000033005F8013D03460028F4D100E00D46A7
:10325000082A0BD12368DA0708D5236962689A42E5
:10326000DEBF302305F8013C05F1FF35491B216124
:103270002EE025681A6815F0800F606903D0151DCF
:103280001D60136808E015F0400F02F104051D6091
:10329000136801D0188000E01860002323610D46F8
:1032A00016E01A68111D1960156800212846626829
:1032B000FFF7DCF908B1401B6060636804E004F1CB
:1032C000420584F8422001232361002384F843301F
:1032D000CDF800803046214603AA3B46FFF796FE14
:1032E000013002D14FF0FF301FE0304639462A4608
:1032F0002369C0470130F5D023689B0705D4E068F7
:10330000039B9842B8BF18460FE00025E368039A74
:103310009B1A9D42F3DA3046394604F11902012323
:10332000C0470130DED00135F0E704B0BDE8F081E0
:10333000F98700000A8800002DE9F04F99468B6854
:1033400015465A1EB2F5AE7F82BF6FF4AE7203EB24
:10335000020C40F25D130F4688BF8B600B684FF084
:10336000000B43F4F06347F81C3B06460C46B84696
:103370005A46DA4687B098BF4FF0000CCDF80CB033
:10338000CDF808B0CDF804B0A168002900F0EC80B9
:103390002B681B78492B70D016D8392B0DD8312BC0
:1033A00040D22D2B46D002D82B2B43D0DCE02E2B45
:1033B00000F09280302B23D0D6E0452B00F0958092
:1033C000462B77D0412B0CE0652B00F08E800AD87D
:1033D000542B75D002D84E2B34D0C5E0592B75D064
:1033E000612B46D0C0E06E2B2CD004D8662B61D068
:1033F000692B42D0B8E0742B62D0792B66D0B3E051
:10340000206810F4807F0DD020F0800020600AF149
:10341000010ABCF1000F00F08A8001310CF1FF3C81
:10342000A16084E012EB0B0F40F09E80216821F434
:10343000C07105E02168080640F1968021F0800106
:10344000216070E06AB9BAF1000F0CD1216801F473
:10345000E060B0F5E06F06D121F4F0612160012257
:1034600061E0022A5ED0BBF1010F1ED0BBF1040F58
:103470001AE0012A78D1022255E0BBF1000F0ED1EB
:10348000BAF1000F73D1216801F4E060B0F5E06F8C
:1034900071D121F4F06121604FF0010B43E0BBF1E9
:1034A000030F02D0BBF1050F5ED10BF1010B5FFAE8
:1034B0008BFB38E0BBF1020F56D14FF0030B32E02B
:1034C000BBF1060F50D14FF0070B2CE0BBF1070FFB
:1034D0004AD14FF0080B26E02168880544D521F435
:1034E00020712160CDF804A01DE0216801F4A060E6
:1034F000B0F5806F04D0480536D5BAF1000F3AD048
:10350000880558BF019821F4F06158BFC0EB0A004C
:1035100041F4C0715CBF0290CDF80C8021604FF087
:10352000000A00E0032288F8003008F10108A368CF
:10353000013BA3602369013323616B68013B002BCE
:103540006B6003DD2B6801332B601DE7D4F88031FD
:10355000304629460592CDF810C09847DDF810C0D6
:10356000059A00283FF410AFBAF1000F03D023688A
:1035700023F480732360013A012A0ED8B8450AD992
:10358000D4F87C31304618F8011D2A469847236943
:10359000013B2361F2E70125AEE00BF1FF33062B7F
:1035A00022D8BBF1020F12D9ABF1030B5FFA8BFBF0
:1035B000CBEB080BD84517D0D4F87C31304618F83F
:1035C000011D2A4698472369013B2361F2E7B8456C
:1035D000E1D9D4F87C31304618F8011D2A469847C5
:1035E0002369013B2361F2E72368DA052CD55B05EB
:1035F0000CD5B845CFD9D4F87C31304618F8011D28
:103600002A4698472369013B2361F2E718F8011C19
:103610002369652903F1FF3308F1FF3B23610DD0D6
:1036200045290BD0D4F87C3130462A469847236987
:1036300018F8021C013BA8F1020B2361D4F87C317D
:1036400030462A469847D846256815F0100552D1CD
:1036500088F80050236803F4C063B3F5806F05D188
:10366000019BC3EB0A035A426BB916E0029BA3B15C
:10367000039B2A46591C30460A2301F0B3F9029BEA
:10368000DDF80C80C21A04F26F13984528BF04F5C8
:10369000B77840461A4900F095FA3046394600227C
:1036A00000F082FB2268064612F0020F0F46D9F89E
:1036B000003003D01A1DC9F8002006E012F0040FF4
:1036C00003F10402C9F8002003D01B68C3E90067B6
:1036D0000DE0D3F8008000F077F910B900F06EFA31
:1036E00003E03046394604F04BF9C8F80000E368BF
:1036F0000133E36000E00025284607B0BDE8F08F05
:103700001B8800002DE9F04115468A6880460C466A
:1037100032B98A69002A0CBF01224FF0FF328A6059
:1037200022680026D1065FBF1A68111D196017684C
:10373000A069F8B923680136DA065EBF2B681B78EA
:103740003B702A686B6802F101022A60A26803F1EB
:10375000FF3302F1FF326B6058BF0137A260EAB15C
:10376000002BE5DCD4F880314046294698470028F4
:10377000DED013E0012807D12B6862691B78D35C87
:10378000002BD7D1C6B109E0022807D12B680B4A1C
:103790001B78126813445B781B07CBD5236813F0A2
:1037A000100305D1E2680132E260A26902B13B7008
:1037B000236900201E442661BDE8F0813C01001011
:1037C0002DE9F04F0C469A46724B87B08346164659
:1037D00093E8070003AB83E807006F4BA1696F4ACA
:1037E00004F11C09032918BF1A46A36800925A1E47
:1037F000B2F5AE7F82BF6FF4AE7503EB050840F201
:103800005D134F4688BFA360236898BF4FF0000840
:1038100043F4506323600023326803A951F8230066
:10382000117802220193FEF721FF019B002835D079
:10383000012B0BD162682AB908226260226842F427
:1038400000722260226822F4A0620BE0022B0AD1EF
:10385000226802F4C061B1F5007F1FD110216160C0
:1038600042F480722260A268511EA160B2B1326837
:103870007D1C511C316012783A707268013A002A3E
:1038800072600ADCD4F88021584631460193904793
:10389000002841D12F46019B00E02F460133032B26
:1038A000BAD163680BB90A23636063683C496069F5
:1038B000C91A00F0C1F83D460027A3686BB3316810
:1038C00060690A78805C40B3302A22680AD110050A
:1038D00008D50137B8F1000F0BD0013308F1FF38DC
:1038E000A36006E022F4106222600B78013505F82F
:1038F000013C7368013B002B736003DD33680133C7
:10390000336005E0D4F8803158463146984720B9F5
:10391000A368013BA360D0E700272368D9050DD534
:103920004D4509D915F8011C05F1FF38D4F87C3153
:1039300058463246984745464D4527D0226812F0F2
:1039400010021BD12A70636858464946009EB04752
:103950002268DAF8003012F0200F07D1D20705D51F
:103960001A1DCAF800201B68188004E01A1DCAF846
:1039700000201B681860E3680133E360C9EB0505AC
:103980003D44276900203D44256100E0012007B047
:10399000BDE8F08F20880000F14A0000E5490000F2
:1039A0003C88000038B5074C0546002020600846DA
:1039B00011461A46FCF78AFE431C02D1236803B164
:1039C0002B6038BD4004001031F0004310B51BD00F
:1039D0000F4AA1F58014944210D901F1FF410C4A1D
:1039E00001F5E001914209D9B3F5801F08D3094AD6
:1039F000934207D1B0FA80F0400910BD042010BDF9
:103A0000032010BD002010BD0028E6D1022010BD0B
:103A1000FFFFDF7F0000F07F38B5064C002305462E
:103A200008462360FCF772FF431C02D1236803B1F0
:103A30002B6038BD40040010F0B50A78441E5E2AA1
:103A400013BF4B1C8B1C4A78002108BF012100F1D9
:103A5000FF0504F8011FAC42FBD10AB9581EF0BDA6
:103A6000C1F10104E7B2875419785E1C2D2905D0F5
:103A70005D290ED079B10A463346F3E75D785D2DB6
:103A8000F9D09542F7DB02330132AA428754FBDBBF
:103A9000EAE73046F0BD1846F0BD00290CBF02220F
:103AA00000224FF4806300F001B800002DE9F041DE
:103AB0001D463D4B04461E680F46904626B1B3692D
:103AC00013B93046FEF7EEFB384B9C4201D17468C7
:103AD00008E0374B9C4201D1B46803E0354B9C426F
:103AE00008BFF468B8F1020F5AD8002D58DB3046F1
:103AF0002146FEF75BFB00236360A361A3891B06DD
:103B000003D530462169FEF7D3FDA389B8F1020F32
:103B100023F08303A38112D037BB002D08BF4FF4DD
:103B200080652846FEF792FD0746C8B94FF48060CD
:103B3000FEF78CFD074688B94FF0FF3000E000200B
:103B4000A38943F00203A3810023A36004F1470388
:103B50002360236101236361BDE8F0814FF4806538
:103B6000A38943F08003A381B8F1010F01BFA389AA
:103B700043F00103A3816B4208BFA3610E4BB36204
:103B8000A389276003F0080080B22761656148B10E
:103B900013F0030F18BF0025A5600020BDE8F081D9
:103BA0004FF0FF30BDE8F081380100107087000051
:103BB00090870000B0870000252200000048704771
:103BC0000000C07F0EB400B54FF402719CB0ADF898
:103BD00014106FF00041049107914FF6FF711DAB77
:103BE000ADF81610084953F8042B029006900868A7
:103BF00002A9019302F074FF029B00221A701CB00C
:103C00005DF804EB03B07047380100100EB430B516
:103C10009CB01FAC4FF4017254F8045BADF8142053
:103C20000290069000F06BF80B4B03900B9300236F
:103C30000F9314934FF6FF73ADF81630074B0790B0
:103C400002A918682A462346019403F095F81CB08F
:103C5000BDE8304003B07047833C000038010010DD
:103C600010B50C46B1F90E1003F0D4F90028ABBF23
:103C7000636DA3891B1823F48053ACBF6365A381D4
:103C800010BD002070472DE9F0411D468B89074685
:103C9000DB050C46164605D5B1F90E1000220223AD
:103CA00002F06EFAA389384623F48053A381B4F955
:103CB0000E1032462B46BDE8F04101F023B810B596
:103CC0000C46B1F90E1002F05BFA431CA38915BF34
:103CD000606523F4805343F48053A38118BFA3810C
:103CE00010BDB1F90E1001F08BB810F8012B11F8CE
:103CF000013B012A28BF9A42F7D0D01A70470346E9
:103D000013F8012B002AFBD1181A0138704770B53F
:103D1000A2B1451E01396B7811F8014F6E1CA34208
:103D200006D16FF00104641B1444E04202D11C462A
:103D3000181B70BD3546002BEDD1F8E7104670BD5D
:103D400030B5036811F8014B01334CB11A78A2F178
:103D50004105192D98BF2032A242F3D0002030BD7A
:103D60000360012030BD2DE9F0410F46904602F07E
:103D700001FD04460D46B8F1000F11D0C7F30A53F8
:103D8000C3F16B03002B0BDD1B0503F17F550024F2
:103D900005F5401522462B4603F010FBBDE8F081E7
:103DA00020462946BDE8F0812DE9F04F00239FB061
:103DB0001A9382460B46039115924FF000084FF07C
:103DC00000091993199B1A780D2A05D8092A13D2CC
:103DD000002A00F0B78111E02B2A06D02D2A02D04C
:103DE000202A0BD108E0012200E0002209925A1C8F
:103DF00019925B7823B9A5E10133E2E70023099327
:103E0000199C2378302B5CD16378582B01D0782B08
:103E10004CD11AAB0093099B5046019319A9AE4AA5
:103E20001BAB01F0D8FE10F00706054600F0A58593
:103E3000062E05D1013400231994099300F09DBD8D
:103E40001A9A3AB11CA8352102F081FD50461A9900
:103E500002F0F8F91B9A062E21D8DFE806F0040DCF
:103E600008171C0D04004FF00009C84617E0DDF8E4
:103E70007080DDF8749012E01D9B02F2334223F44F
:103E80008013DDF8708043EA025908E0DFF84C92B5
:103E90004FF0000803E06FF000494FF0FF382907AA
:103EA00040F16B8549F0004900F067BD199B5A1C31
:103EB00019925B78302BF9D0002B00F05E8501233E
:103EC00000E000230026B34635460493199B079370
:103ED000199C2778A7F13003DAB2092A0CD8082DEB
:103EE0004FF00A0204F10104D4BF02FB0B3B02FBBA
:103EF000063601351994EBE7504602F03DF90168AA
:103F00005046059102F038F90068FFF7F8FE059970
:103F100002462046FFF7FBFE28B100203B462C4618
:103F20000246074657E00590504602F025F9006822
:103F3000FFF7E5FE199B05991A1819921B5C002DD5
:103F400041D12846302B05D1199B01305A1C1992BA
:103F50005B78F7E7A3F13102082A42D8199A079251
:103F6000024600200446303B00F1010125D00A44FE
:103F700021460719B94211D0013101F1FF3EBEF1CE
:103F8000080F04DC4FF00A0E0EFB0BFBF2E71029C2
:103F9000DCBF4FF00A0E0EFB06F6EBE720440828C4
:103FA00000F1010403DC0A2101FB0B3B04E0102CAF
:103FB000DCBF0A2101FB06360021199B581C199011
:103FC0005B78084602E02C4608460A46A3F1300119
:103FD0000929C8D90127652B01D0452B64D16CB9BB
:103FE00004E0652B40F0D7840022012728B9049B08
:103FF000002B00F0A780044600E00024199B0393E7
:1040000001331993039B5B782B2B07D02D2B02D008
:104010004FF0000C09E04FF0010C01E04FF0000CF4
:10402000039B02331993039B9B78A3F13001092969
:1040300038D81946302904D1199B591C199159783F
:10404000F8E7A1F1310EBEF1080F0B462CD8A1F113
:1040500030030593199B0693199B03F1010ECDF8CC
:1040600064E05B78A3F13001092908D805994FF085
:104070000A0E0EFB0131A1F130030593ECE706991E
:10408000C1EB0E0EBEF1080F44F61F6E04DC05995D
:104090007145A8BF714600E07146BCF1000F04D025
:1040A000494202E0039919910021002C54D10028C3
:1040B00040F06384049A002A40F05F84002F41D1CD
:1040C0004E2B20D002DC492B0AD03BE0692B07D0D5
:1040D0006E2B18D036E000BF888800000000F07F0B
:1040E00019A8AA49FFF72CFE60B3199B19A8013B38
:1040F000A7491993FFF724FE10B9199B01331993AF
:10410000DFF8A4921AE019A8A249FFF719FEC8B176
:10411000199B1B78282B0FD119A89F491CAA01F0C5
:1041200091FF052808D11D9BDDF8708043F0FF4901
:1041300049F4E00900F021BCDFF870924FF000086C
:1041400000F01BBC039B1993159B002B00F02084EF
:104150000023099300F013BC8B1A06932B46002D05
:1041600008BF23465846102C25460393A8BF1025A8
:1041700003F0AEF8092D8046894613DD874B03EB2B
:10418000C50353E9122303F019F9804630468946E6
:1041900003F09EF802460B464046494602F05CFF9B
:1041A000804689460F2C36DC069B002B00F0E58309
:1041B00024DD162B07DC794A02EBC302D2E90001A9
:1041C0004B46424615E0069AC4F125039A4222DC8A
:1041D000724DC4F10F0405EBC403D3E9000142465C
:1041E0004B4603F0EBF8069B1C1B05EBC405D5E919
:1041F000002303F0E3F880468946BEE3069B13F1F3
:10420000160F08DB654A4046A2EBC30249460CCABA
:1042100003F0FEF9EFE7069B651B1D44002D58DDFA
:1042200015F00F020AD05D4B03EBC203D3E9000186
:1042300042464B4603F0C2F88046894635F00F05EA
:1042400000F0BA80B5F59A7F0FDD4FF0000BCDF886
:104250000CB0CDF81CB0CDF814B02223CAF8003051
:10426000DFF844914FF0000883E14946DFF84091C0
:1042700040464E462D110027012D0ADDEA0703D5E1
:10428000D9E9002303F09AF801376D1009F1080904
:10429000F2E78046A1F1547906EBC7064246D6E91B
:1042A00000014B4603F08AF821F0004389460A4694
:1042B0001B0D3B491B058B428046C6D8A1F58011DA
:1042C0008B4286BFDFF8EC904FF0FF3802F1547953
:1042D00072E071D06D4215F00F020AD02F4B4046AC
:1042E00003EBC2034946D3E9002303F091F980466A
:1042F00089462D1160D01F2D08DD4FF0000BCDF841
:104300000CB0CDF81CB0CDF814B02BE140464946B6
:1043100015F0100F0CBF00236A23224E0493002DCA
:1043200008DDEB0703D5D6E9002303F047F86D104D
:104330000836F4E7049B80468946EBB1C1F30A5383
:10434000C3F16B03002B0A4616DD1F2B0EDD342B49
:10435000DEBF203B4FF0FF3101FA03F34FF00008BE
:10436000CCBF4FF05C7903EA020905E04FF0FF3261
:1043700002FA03F303EA00084046494600220023FC
:1043800003F084FA0028B8D118E000BFEE870000DF
:10439000A0890000F687000048880000B889000066
:1043A0000000A07C608800000000F07F0000F8FFA3
:1043B000808A0000FFFFEF7F00230493CDF800B058
:1043C00050460799039A234601F091FF0790002871
:1043D0003FF43BAF069A069B002AC3F100034FF05F
:1043E000000BA8BF00230E93CDF80CB0079B5046DE
:1043F000596801F0F2FE059000283FF42EAF079BAC
:104400000C301A69079B023203F10C019200FEF78F
:104410003BF91BAB00931CAB0193504642464B4605
:10442000CDE90A8902F019FA1A9000283FF415AF75
:104430005046012101F0E8FF039000283FF40DAF42
:10444000069B049923EAE3771B9B1C9C002BAABFC5
:104450000E9AFA1AD618A3EB010323446FF47F7166
:10446000ACBF3A460E9E8B42C4F1360480F2868081
:10447000C91A1F29A4EB0104C8BFB3494FF00100BA
:10448000D5BF00FA01F3C91A149300FA01F3D9BF9A
:1044900000230F930F9314903519049BB5421444D5
:1044A0001C442B46A8BF3346A342A8BF2346002B7B
:1044B000C2BFED1AE41AF61A0E9B002B63D1002D31
:1044C0007BDC002F40F08380002C00F38A80002EDC
:1044D00000F3918050461A99059A02F0ECF8834651
:1044E00000283FF4BAAEC3680024C460039908935F
:1044F00002F0C5F8A04280F28D80089B002B40F0AE
:104500001582B8F1000F40F01182C9F31303002B9C
:1045100040F00C8229F000431B0D1B05B3F1D66F50
:1045200040F20482DBF81430002B6ED05946012291
:10453000504602F051F80399834602F0A0F8002893
:1045400040F3F48129F00043049A1B0D1B05002A57
:1045500000F08F80B3F1D66F00F38B80B3F15C7FF6
:1045600000F3E68122234FF000084FF00009CAF85B
:104570000030079B002B40F0EC81FEE100230F93FD
:104580000123149388E71A465046039901F0D6FF99
:104590000390034600283FF460AE504619461A9A2D
:1045A00001F03BFF089000283FF457AE50461A999F
:1045B00001F048FE089B1A9381E750461A992A4653
:1045C00002F00AF81A9000287FF47BAF45E65046C7
:1045D00005993A4601F0B2FF059000287FF474AFC8
:1045E0003BE650460599224601F0F6FF059000286B
:1045F0007FF46DAF31E650460399324601F0ECFF8F
:10460000039000287FF466AF27E6DBF81030012B1B
:104610008CDC8BE162D1089AC9F3130322B34B49B6
:104620004A468B422ED1049B414663B1484B13400E
:10463000B3F1D46F07D81B0DC3F16B034FF0FF30FC
:1046400000FA03F301E04FF0FF3399421AD1414BD6
:104650009A4202D101313FF400AE3D4B4FF00008C9
:10466000134003F5801961E163B9B8F1000F09D176
:1046700068E7A3F580136FEA13594FF0FF386FEA2C
:10468000095953E10F9B13B113EA090F02E0149B80
:1046900013EA080F00F04A81089B40464946049AF5
:1046A00053B1FFF760FB02460B46DDE90A0102F059
:1046B000D3FC8046894639E1FFF755FB02460B469D
:1046C000DDE90A0102F0C6FC00220023804689468B
:1046D00003F0DCF800287FF445AF27E15846039942
:1046E00002F00DF900224FF0804306460F4603F01A
:1046F000E1F800283FD0089B13B10026164F10E0C8
:10470000B8F1000F03D1C9F313033BB90BE0B8F1C3
:10471000010F03D1B9F1000F3FF424AF0F4F002672
:1047200000240D4D3CE03046394600220A4B03F090
:10473000B7F8B8B9304639460022094B02F03EFEC0
:1047400004460D4610E000BFE3FBFFFFFFFF0F0034
:104750000000F07FFFFFEF7F0000F03F0000F0BFA0
:104760000000E03F089C9A4D05F100431694179312
:10477000DDE9166714E0964B30463946002202F018
:104780001DFE089B04460D4623B901F1004310901D
:10479000119303E002460B46CDE91023DDE91067D3
:1047A00029F0004C4FEA1C5C8A4B4FEA0C5C9C459C
:1047B00031D1DDE90A23A9F1547940464946CDF8C3
:1047C0003CC0CDE90C2301F0D5FF02460B46304634
:1047D000394602F0F3FD02460B464046494602F0D8
:1047E0003BFC21F000431B0D7B4A1B059342804696
:1047F000DDF83CC00CD9794B0D9A9A4203D10C9B41
:1048000001333FF42AADDFF8D4914FF0FF387CE05C
:1048100001F1547944E0049B63B3BCF1D46F29D80F
:1048200063A3D3E9002320462946CDF83CC003F01A
:1048300041F8DDF83CC0C8B12946204603F080F8B5
:10484000002808BF012002F043FD089B04460D46E6
:10485000DDF83CC023B901F100431290139303E04B
:1048600002460B46CDE91223DDE9126707F1D66354
:10487000CCEB0307DDE90A01CDF83CC001F07AFF7B
:1048800002460B463046394602F098FD02460B467A
:10489000DDE90A0102F0E0FB80468946DDF83CC014
:1048A000049B4E468BBB29F000431B0D1B059C450A
:1048B0002BD12946204603F01BF802F019FD0B46C8
:1048C00002462946204602F0C5FB089B04460D46D9
:1048D0002BB9B8F1000F02D1C9F313067EB136A38C
:1048E000D3E900232046294602F0DAFF88BB34A32F
:1048F000D3E900232046294602F0F0FF04E032A36A
:10490000D3E9002302F0CCFF18BB50461A9901F0FE
:1049100099FC5046059901F095FC5046039901F029
:1049200091FC5046594601F08DFC5FE5049B83B134
:104930002B4B40460D9300230C934946DDE90C2395
:1049400002F03CFD8046894619B910B92223CAF805
:10495000003050461A9901F075FC5046059901F057
:1049600071FC5046039901F06DFC5046079901F027
:1049700069FC5046594601F065FC159B13B1199B23
:10498000159A1360099B1BB1424609F1004307E0E9
:1049900042464B4604E0002422460127FFF71DBB98
:1049A000104619461FB0BDE8F08F00BFAFF300807E
:1049B0000000C0FFFFFFDF419535A094FFFFDF3F00
:1049C00035E5AF350000E03F9535A094FFFFCF3FC0
:1049D0000000E03F0000E07FFFFF9F7CFFFFEF7FD4
:1049E000000050392DE9F0470F46404CD4F80090B4
:1049F0003D4615F801EB09EB0E04667806F0080455
:104A000004F0FF060CB12F46F2E774462D2C03D1BB
:104A1000BD1C7C78012603E02B2C04BF7C78BD1CD8
:104A200013B1102B0AD15AE0302C56D12C7804F057
:104A3000DF04582C4CD16C7810230235002E14BFA3
:104A40004FF000486FF00048B8FBF3FA0027BE466D
:104A500003FB1A8809EB040C9CF801C01CF0040F3E
:104A600001D0303C0BE01CF0030C1BD0BCF1010F5B
:104A70000CBF4FF0370C4FF0570CCCEB04049C42AA
:104A800010DAB7F1FF3F0AD0D64506D801D1444528
:104A900003DC03FB0E4E012701E04FF0FF3715F852
:104AA000014BD7E77C1C73460AD1002E4FF0220140
:104AB00014BF4FF000436FF0004301602AB911E0CA
:104AC0000EB1CEF100036AB107B1691E116009E0B1
:104AD0003024002BB2D10823B0E70A23AEE7302CF4
:104AE000ACD1A3E71846BDE8F08700BF3C01001039
:104AF0002DE9F0470E463B4CD4F80090354615F8AA
:104B000001EB09EB0E04677807F0080404F0FF07D7
:104B10000CB12E46F2E774462D2C03D1B51C7478E7
:104B2000012703E02B2C04BF7478B51C13B1102BA4
:104B30000AD151E0302C4DD12C7804F0DF04582CF0
:104B400043D16C78102302354FF0FF38B8FBF3F8EF
:104B500003FB08FA00266FEA0A0AB64609EB040CC2
:104B60009CF801C01CF0040F01D0303C0BE01CF09D
:104B7000030C1BD0BCF1010F0CBF4FF0370C4FF0F2
:104B8000570CCCEB04049C4210DAB6F1FF3F0AD07C
:104B9000C64506D801D1544503DC03FB0E4E012661
:104BA00001E04FF0FF3615F8014BD7E7741C734650
:104BB00003D122230360334602E00FB1CEF100039C
:104BC0006AB106B1691E116009E03024002BBBD127
:104BD0000823B9E70A23B7E7302CB5D1ACE718466C
:104BE000BDE8F0873C0100102DE9F0410C46496B0F
:104BF00004F1440399421AD14FF48061FDF79CFD02
:104C000018B94FF0FF30BDE8F0814FF48063A36323
:104C100094F84630606380F8FF3394F8453000F232
:104C2000FD30437094F844300370206012E0A66BAE
:104C300077003A4601F0D5FE05460028E1D000EBAA
:104C40000608404629463246FDF71EFDC4F800809E
:104C50006563A7630020BDE8F081000070B50D46D4
:104C60001446064618B183690BB9FDF71BFB224BAE
:104C70009C4201D1746808E0204B9C4201D1B46889
:104C800003E01F4B9C4208BFF468A369A360A3899B
:104C90001A0709D523693BB123682069EDB2181AB8
:104CA000636998420FDB08E03046214600F03CF88B
:104CB0000028F1D04FF0FF3070BD30462146FDF79F
:104CC00075FA0028F6D1A3680130013BA360236880
:104CD0005A1C22601D706369984204D0A389DB07C7
:104CE00007D50A2D05D130462146FDF75FFA002889
:104CF000E0D1284670BD00BF70870000908700009B
:104D0000B087000038B5074C0546002020600846F3
:104D100011461A46FBF76CFD431C02D1236803B110
:104D20002B6038BD40040010314B70B51D6806463D
:104D30000C4625B1AB6913B92846FDF7B3FA2D4BE4
:104D40009C4201D16C6808E02B4B9C4201D1AC68BD
:104D500003E02A4B9C4208BFEC68A3899AB2110772
:104D60001DD4D50602D40922326038E0500712D58E
:104D7000616B41B104F14403994202D03046FDF722
:104D800097FC00236363A38923F02403A3810023FA
:104D9000636023692360A38943F00803A381236927
:104DA0004BB9A38903F42073B3F5007F03D03046D9
:104DB0002146FDF7FFFBA38913F0010205D0002275
:104DC000A26062695242A26103E0990758BF62691A
:104DD000A26022694AB903F0800080B230B143F08A
:104DE0004003A3814FF0FF3070BD002070BD00BFB5
:104DF000380100107087000090870000B087000025
:104E000038B5064C0023054608462360FBF7DCFC5A
:104E1000431C02D1236803B12B6038BD400400104D
:104E20002DE9F74F03690C698046A3427EDB013C04
:104E300001F114074FEA840E00F1140606EB0E038D
:104E400057F82450019356F824300135B3FBF5F59B
:104E500007EB0E09BDB34FF0000A3846B446D346FF
:104E600050F8043B9AB21B0C02FB05A26B4303EB08
:104E7000124392B2C2EB0B0BBCF800204FEA134A6C
:104E80005A441FFA83FBDCF800304845CBEB134350
:104E900003EB224392B242EA03424FEA234B4CF81F
:104EA000042BDDD956F80E306BB9019B043BB3429D
:104EB0001A4602D8C8F8104005E01268043B002AE0
:104EC000F8D1013CF3E7404601F0D9FB00282BDB89
:104ED000304601354FF0000E57F8042B036891B2AD
:104EE000C1EB0E0E120C99B27144C2EB134303EBEB
:104EF000214389B24FEA234E4F4541EA034340F82C
:104F0000043BE9D956F8242006EB840362B9043B3C
:104F1000B3421A4602D8C8F8104005E01268043BB4
:104F2000002AF8D1013CF3E7284600E0002003B056
:104F3000BDE8F08F000000002DE9F04F456A95B004
:104F40008246219CCDE9022345B91020FDF77EFB66
:104F5000CAF82400456085600560C560DAF8243031
:104F6000196859B15A68012393404A608B605046D2
:104F700001F068F9DAF8243000221A60039BA24A93
:104F8000002BBDBF01232360039B0023BCBF23F084
:104F900000430393039FA8BF236027F000431B0D2A
:104FA0001B0593421DD142F20F73209A1360029B9E
:104FB00043B9964A964BC7F31300002814BF18460E
:104FC000104600E09248229B002B00F06985C378D0
:104FD00013B100F1080300E0C31C229A136000F033
:104FE0005FBDDDE90245002220462946002302F08C
:104FF0004DFC804658B1209A01231360229B002B60
:1050000000F03C8583481860013800F049BD13ABBF
:10501000009312AB0193504622462B4601F01DFC33
:10502000C7F30A5607905EB1C5F3130343F07F51EF
:10503000204641F44011A6F2FF36CDF844801DE031
:10504000139B129E1E446FF482639E42A1BF029A7C
:1050500006F2124322FA03F06F4BB7BF6F4B9B1B54
:10506000029A9B1BAABF9F4002FA03F0384302F04A
:105070002FF90123A1F1F871013E11930022684B31
:1050800001F0E8FF5AA3D3E9002302F097F95AA3ED
:10509000D3E9002301F0E0FF044630460D4602F05C
:1050A00027F957A3D3E9002302F088F902460B46FB
:1050B0002046294601F0D0FF04460D4602F018FCB8
:1050C0002946834600222046002302F0E9FB58B11E
:1050D000584602F00DF902460B462046294602F0DA
:1050E000D5FB08B90BF1FF3BBBF1160F0DD84D4BAB
:1050F00003EBCB03D3E90001DDE9022302F0EEFB71
:1051000030B10BF1FF3B002300E00123109300E0DE
:105110001090129B9E1B731E0A9345BF5B4209931E
:10512000002300234CBF0A930993BBF1000F07DB58
:105130000A9BCDF834B05B440A9300230B9308E03C
:10514000099BCBEB03030993CBF100030B930023E3
:105150000D931E9B092B29D8052BC4BF043B1E931E
:105160001E9BC8BF0025A3F10203D8BF0125032B56
:1051700021D8DFE803F0020E0410002300E0012331
:105180000C931F9B002B20DC0123069305931A46EA
:1051900019E0002300E001230C931F9B5B4406935E
:1051A0000133012B0593B8BF012311E00125002332
:1051B0001E930C9501E001230C934FF0FF330693EF
:1051C0000593002212231F9202E01F9B0693059372
:1051D000DAF8244000226260042101F114029A42AC
:1051E00022D86268490001326260F6E7AFF30080BE
:1051F00061436F63A787D23FB3C8608B288AC63FDD
:10520000FB799F501344D33F0000F07F9D8900003D
:10521000A6890000438800000EFCFFFFEEFBFFFFA5
:105220000000F83FB88900005046616800F0D5FFE3
:10523000DAF8243020601B680893059B0E2B00F2DF
:105240004781002D00F04481DDE90223BBF1000F0E
:10525000CDE90E2331DDB14A0BF00F034FEA2B16D7
:1052600002EBC303F006D3E900450CD5DDE90E01DE
:10527000AB4B06F00F06D3E9082302F0C9F9032768
:10528000CDE9020100E00227DFF8948276B1F10750
:1052900008D5D8E900232046294602F08FF80446B5
:1052A0000D460137761008F10808EFE7DDE9020145
:1052B00022462B4602F0ACF91BE0CBF10004DCB136
:1052C000DDE90E01954B04F00F0203EBC203D3E9B5
:1052D000002302F073F8924D241102274CB1E2072B
:1052E00004D5D5E90023013702F068F864100835C9
:1052F000F4E7CDE9020100E00227109BDBB1DDE914
:105300000245002220462946864B02F0C9FA90B198
:10531000059B83B1069B002B40F3D680294620468F
:105320000022814B02F04AF80BF1FF36CDE9020171
:105330000137069D01E05E46059D3846DDE902899C
:1053400001F0D6FF42464B4602F038F8774B002278
:1053500001F082FECDE90201039BA3F15074039496
:10536000CDB9404649460022714B01F073FE029AC6
:1053700023468046894602F0B1FA002840F0408278
:1053800040464946029A04F1004302F089FA002897
:1053900040F0308298E0614B0C996A1E03EBC20327
:1053A000002947D0D3E900230020624902F030F9F8
:1053B000DDE9022301F04EFECDE90201089C4946D9
:1053C000404602F095FA074601F092FF02460B466E
:1053D0004046494601F03EFEDDE90223303704F83D
:1053E000017B8046894602F05BFA002840F0378353
:1053F00042464B4600204B4901F02CFEDDE90223DA
:1054000002F04EFA002840F0D080089BE31AAB422D
:105410005ADADDE902010022434B01F0CFFF0022FE
:10542000CDE90201404B4046494601F0C7FF8046A6
:105430008946C4E7D3E90001DDE9022301F0BEFF9C
:10544000089BCDE902015C191D464946404602F021
:105450004FFA074601F04CFF02460B4640464946CC
:1054600001F0F8FD303705F8017BA54280468946FA
:1054700023D100222F4BDDE9020101F0EDFD0246B0
:105480000B464046494602F029FA002840F08D803C
:10549000DDE902230020274901F0DCFD02460B462E
:1054A0004046494602F0FCF970B114F8013C621E16
:1054B000302B40F0D4821446F7E700221A4B01F05B
:1054C0007DFF80468946C0E7DDE90E23CDE9022352
:1054D000139B002BC0F28A80BBF10E0F00F3868075
:1054E0000E4B03EBCB03D3E900671F9B002B23DAA2
:1054F000059B002B20DC40F07C81304600220C4BC9
:10550000394601F05BFFDDE9022302F0DDF9059D7C
:105510002E46002840F06F8174E100BFB88900007A
:10552000808A00000000F03F0000244000001C4082
:10553000000014400000E03F089CDDE9028932468B
:105540003B464046494602F063F802F0D1F9054671
:1055500001F0CEFE32463B4601F030FF0B460246DC
:105560004946404601F076FD05F1300E089B04F8EF
:1055700001EBC3EB040E059B9E452AD102460B4668
:1055800001F06AFD32463B468046894602F0A6F9A4
:1055900070B94046494632463B4602F077F900284A
:1055A00000F05E82EB0703D45AE2B34600E01C46EB
:1055B00014F8012C631E392A07D1089A9342F6D1B8
:1055C0003023137013460BF1010B1A7801321A7055
:1055D00046E20022A34B01F0F1FE002200238046A8
:1055E000894602F053F90028A9D039E20C9A002A22
:1055F00032D01E9A012A0ADC119A12B103F2334307
:1056000002E0129BC3F136030B9D099C18E0059B39
:105610005D1E0B9BAB42B7BF0B9B5D1BEA1A0D9B3C
:10562000BEBF0B959B180D93059BB8BF0025002BA3
:10563000B9BF099B059A099C059BBCBF9C1A002316
:10564000099A50461A4409920A9A01211A440A9268
:1056500000F0DAFE064602E00B9D099C0C9E64B148
:105660000A9B002B09DDA342A8BF2346099AE41A2E
:10567000D21A09920A9AD31A0A930B9B002B20DDA7
:105680000C9BC3B1002D10DD31462A46504600F078
:1056900055FF0646079A3146504600F0BEFE0746C3
:1056A0000799504600F0CEFD07970B9B5A1B08D078
:1056B0005046079902E0504607990B9A00F03EFFCA
:1056C00007905046012100F09FFE0D9B0546002BE0
:1056D0000ADD29461A46504600F030FF1E9B05465B
:1056E000012B04DD00271BE01E9B012B13DC029B1A
:1056F0008BB9039BC3F313037BB9039B23F00047D0
:105700003F0D3F0557B1099B0127013309930A9BC0
:1057100001330A9302E0002700E0029F0D9B43B192
:105720002B6905EB8303186900F021FEC0F120000E
:1057300000E001200A9B184410F01F0008D0C0F1BF
:105740002003042B02DDC0F11C0002E008D0184643
:105750001C30099B0444034409930A9B03440A93A5
:10576000099B002B05DD504607991A4600F034FFCF
:1057700007900A9B002B05DD294650461A4600F08B
:105780002BFF0546109BEBB10798294600F077FFE9
:10579000002817DA0023504607990A2200F069FD15
:1057A0000C9B0BF1FF3B0790002B00F06B81314607
:1057B000002350460A2200F05CFD069B0646002BA3
:1057C00033DC68E1059B002B26DC1E9B022B23DDCE
:1057D000059B0693069B73B929460522504600F0A7
:1057E00048FD05460798294600F049FF002809DCD6
:1057F00001E000252E461F9B089C6FEA030B08E082
:10580000B3462E46089B089A5C1C312313700BF19B
:10581000010BB14600260FE10C9B23B9059B0693B3
:10582000089F079CC9E0059B0693002C05DD3146C7
:105830005046224600F0D0FE0646AFB17168504691
:1058400000F0CBFC0446326906F10C0102329200F2
:105850000C30FCF719FF50462146012200F0BCFE37
:10586000814602E000002440B146089F079C29467B
:105870002046FFF7D5FA3146099000F1300820465E
:1058800000F0FDFE4A4605902946504600F013FF01
:10589000C26803463AB919462046079300F0EFFE66
:1058A000079B024600E0012250461946079200F08D
:1058B000C9FC079A92B91E9B83B9029B03F00103AE
:1058C00063B9B8F1390F3B4607943ED0059B7C1C69
:1058D000002BC4BF099B03F131083DE0059B002B61
:1058E00004DA002AC446079408DC21E024D11E9B78
:1058F00013BB029B03F00103F3B9F2E72146012237
:1059000050460597CDF8088000F066FE29460790BE
:1059100000F0B5FE0028DDF808C0059B03DC07D1C8
:1059200018F0010F04D0B8F1390F0ED008F1010CB6
:105930007C1C87F800C07FE0002A07F101020EDD21
:10594000B8F1390F3B46079403D1392201371A7059
:1059500057E0144608F1010887F800806CE0089BC6
:105960001746D31A02F8018C069A93423AD0214680
:105970000A220023504600F07CFC4E450446314686
:1059800050464FF00A024FF0000304D100F071FCC2
:10599000064681466BE700F06CFC494606460A2243
:1059A0005046002300F065FC814660E721465046E2
:1059B0000A22002300F05DFC044620462946FFF73A
:1059C0002FFA089B00F1300807F8018B069AFB1AA2
:1059D0009342EBDB089BB146012AACBF9B18013315
:1059E0001F46002621460122504600F0F5FD2946BB
:1059F000079000F044FE002803DC15D118F0010FD9
:105A000012D03C4614F8013C621E392B09D1089B88
:105A10009A4204D10BF1010B3123089A02E014469B
:105A2000F0E70133137007E03C4614F8013C621EB6
:105A3000302B01D11446F8E75046294600F002FC0D
:105A4000B9F1000F0CD02EB14E4503D0504631466F
:105A500000F0F8FB5046494600F0F4FB00E0B34686
:105A60005046079900F0EEFB0023209A23700BF1BB
:105A700001031360229B1BB11C6001E00A480FE088
:105A800008980DE0069B002B3FF7CAAE1E9B022B29
:105A90003FF7A0AEC4E61E9B022B3FF79BAEC4E6C9
:105AA00015B0BDE8F08F00BF428800000B7830B51C
:105AB000722B0ED0772B07D0612B0ED14FF40274CE
:105AC00001234FF484701AE04FF4C06401230820CE
:105AD00015E000242346042011E016230360002073
